{
  "contractName": "TokenDistributor",
  "abi": [
    {
      "anonymous": false,
      "inputs": [
        {
          "indexed": true,
          "internalType": "address",
          "name": "user",
          "type": "address"
        },
        {
          "indexed": false,
          "internalType": "uint256",
          "name": "amount",
          "type": "uint256"
        }
      ],
      "name": "TokensDistributed",
      "type": "event"
    },
    {
      "inputs": [],
      "name": "INITIAL_TOKENS",
      "outputs": [
        {
          "internalType": "uint256",
          "name": "",
          "type": "uint256"
        }
      ],
      "stateMutability": "view",
      "type": "function"
    },
    {
      "inputs": [],
      "name": "claimTokens",
      "outputs": [],
      "stateMutability": "nonpayable",
      "type": "function"
    },
    {
      "inputs": [
        {
          "internalType": "address",
          "name": "user",
          "type": "address"
        }
      ],
      "name": "getBalance",
      "outputs": [
        {
          "internalType": "uint256",
          "name": "",
          "type": "uint256"
        }
      ],
      "stateMutability": "view",
      "type": "function"
    }
  ],
  "bytecode": "0x608060405234801561000f575f80fd5b506103e78061001d5f395ff3fe608060405234801561000f575f80fd5b506004361061003f575f3560e01c806348c54b9d1461004357806385c8bd6d1461004d578063f8b2cb4f1461006b575b5f80fd5b61004b61009b565b005b61005561020e565b6040516100629190610271565b60405180910390f35b610085600480360381019061008091906102e8565b610214565b6040516100929190610271565b60405180910390f35b60015f3373ffffffffffffffffffffffffffffffffffffffff1673ffffffffffffffffffffffffffffffffffffffff1681526020019081526020015f205f9054906101000a900460ff1615610125576040517f08c379a000000000000000000000000000000000000000000000000000000000815260040161011c90610393565b60405180910390fd5b6103e85f803373ffffffffffffffffffffffffffffffffffffffff1673ffffffffffffffffffffffffffffffffffffffff1681526020019081526020015f20819055506001805f3373ffffffffffffffffffffffffffffffffffffffff1673ffffffffffffffffffffffffffffffffffffffff1681526020019081526020015f205f6101000a81548160ff0219169083151502179055503373ffffffffffffffffffffffffffffffffffffffff167f16b0da2ffcb90c6723317bd637d9aad7f04711f42bbe0ac0918ebe10f1f9001c6103e86040516102049190610271565b60405180910390a2565b6103e881565b5f805f8373ffffffffffffffffffffffffffffffffffffffff1673ffffffffffffffffffffffffffffffffffffffff1681526020019081526020015f20549050919050565b5f819050919050565b61026b81610259565b82525050565b5f6020820190506102845f830184610262565b92915050565b5f80fd5b5f73ffffffffffffffffffffffffffffffffffffffff82169050919050565b5f6102b78261028e565b9050919050565b6102c7816102ad565b81146102d1575f80fd5b50565b5f813590506102e2816102be565b92915050565b5f602082840312156102fd576102fc61028a565b5b5f61030a848285016102d4565b91505092915050565b5f82825260208201905092915050565b7f596f75206861766520616c726561647920726563656976656420796f757220745f8201527f6f6b656e732e0000000000000000000000000000000000000000000000000000602082015250565b5f61037d602683610313565b915061038882610323565b604082019050919050565b5f6020820190508181035f8301526103aa81610371565b905091905056fea2646970667358221220508818716040a9a394ab885594b4c399d1424df53854881119cc1e14faea1c7e64736f6c63430008150033",
  "immutableReferences": {},
  "source": "// SPDX-License-Identifier: MIT\npragma solidity ^0.8.0;\n\ncontract TokenDistributor {\n    mapping(address => uint256) private balances;\n    mapping(address => bool) private hasReceivedTokens;\n\n    uint256 public constant INITIAL_TOKENS = 1000;\n\n    event TokensDistributed(address indexed user, uint256 amount);\n\n    function claimTokens() public {\n        require(!hasReceivedTokens[msg.sender], \"You have already received your tokens.\");\n        \n        balances[msg.sender] = INITIAL_TOKENS;\n        hasReceivedTokens[msg.sender] = true;\n\n        emit TokensDistributed(msg.sender, INITIAL_TOKENS);\n    }\n\n    function getBalance(address user) public view returns (uint256) {\n        return balances[user];\n    }\n}\n",
  "sourcePath": "/Users/bodi/projects/e-softworks.consulting/smartcontractswisdom.git/contracts/TokenDistributor.sol",
  "compiler": {
    "name": "solc",
    "version": "0.8.21+commit.d9974bed.Emscripten.clang"
  },
  "schemaVersion": "3.4.16",
  "updatedAt": "2025-03-18T15:56:41.683Z",
  "devdoc": {
    "kind": "dev",
    "methods": {},
    "version": 1
  },
  "userdoc": {
    "kind": "user",
    "methods": {},
    "version": 1
  }
}