{
  "contractName": "UserDataStorage",
  "abi": [
    {
      "inputs": [
        {
          "internalType": "string",
          "name": "_data",
          "type": "string"
        }
      ],
      "name": "storeUserData",
      "outputs": [],
      "stateMutability": "nonpayable",
      "type": "function"
    },
    {
      "inputs": [
        {
          "internalType": "address",
          "name": "user",
          "type": "address"
        }
      ],
      "name": "retrieveUserData",
      "outputs": [
        {
          "internalType": "string",
          "name": "",
          "type": "string"
        }
      ],
      "stateMutability": "view",
      "type": "function"
    }
  ],
  "bytecode": "0x608060405234801561000f575f80fd5b506107588061001d5f395ff3fe608060405234801561000f575f80fd5b5060043610610034575f3560e01c8063579176a314610038578063d4628c7f14610068575b5f80fd5b610052600480360381019061004d9190610208565b610084565b60405161005f91906102bd565b60405180910390f35b610082600480360381019061007d9190610409565b610150565b005b60605f808373ffffffffffffffffffffffffffffffffffffffff1673ffffffffffffffffffffffffffffffffffffffff1681526020019081526020015f2080546100cd9061047d565b80601f01602080910402602001604051908101604052809291908181526020018280546100f99061047d565b80156101445780601f1061011b57610100808354040283529160200191610144565b820191905f5260205f20905b81548152906001019060200180831161012757829003601f168201915b50505050509050919050565b805f803373ffffffffffffffffffffffffffffffffffffffff1673ffffffffffffffffffffffffffffffffffffffff1681526020019081526020015f2090816101999190610653565b5050565b5f604051905090565b5f80fd5b5f80fd5b5f73ffffffffffffffffffffffffffffffffffffffff82169050919050565b5f6101d7826101ae565b9050919050565b6101e7816101cd565b81146101f1575f80fd5b50565b5f81359050610202816101de565b92915050565b5f6020828403121561021d5761021c6101a6565b5b5f61022a848285016101f4565b91505092915050565b5f81519050919050565b5f82825260208201905092915050565b5f5b8381101561026a57808201518184015260208101905061024f565b5f8484015250505050565b5f601f19601f8301169050919050565b5f61028f82610233565b610299818561023d565b93506102a981856020860161024d565b6102b281610275565b840191505092915050565b5f6020820190508181035f8301526102d58184610285565b905092915050565b5f80fd5b5f80fd5b7f4e487b71000000000000000000000000000000000000000000000000000000005f52604160045260245ffd5b61031b82610275565b810181811067ffffffffffffffff8211171561033a576103396102e5565b5b80604052505050565b5f61034c61019d565b90506103588282610312565b919050565b5f67ffffffffffffffff821115610377576103766102e5565b5b61038082610275565b9050602081019050919050565b828183375f83830152505050565b5f6103ad6103a88461035d565b610343565b9050828152602081018484840111156103c9576103c86102e1565b5b6103d484828561038d565b509392505050565b5f82601f8301126103f0576103ef6102dd565b5b813561040084826020860161039b565b91505092915050565b5f6020828403121561041e5761041d6101a6565b5b5f82013567ffffffffffffffff81111561043b5761043a6101aa565b5b610447848285016103dc565b91505092915050565b7f4e487b71000000000000000000000000000000000000000000000000000000005f52602260045260245ffd5b5f600282049050600182168061049457607f821691505b6020821081036104a7576104a6610450565b5b50919050565b5f819050815f5260205f209050919050565b5f6020601f8301049050919050565b5f82821b905092915050565b5f600883026105097fffffffffffffffffffffffffffffffffffffffffffffffffffffffffffffffff826104ce565b61051386836104ce565b95508019841693508086168417925050509392505050565b5f819050919050565b5f819050919050565b5f61055761055261054d8461052b565b610534565b61052b565b9050919050565b5f819050919050565b6105708361053d565b61058461057c8261055e565b8484546104da565b825550505050565b5f90565b61059861058c565b6105a3818484610567565b505050565b5b818110156105c6576105bb5f82610590565b6001810190506105a9565b5050565b601f82111561060b576105dc816104ad565b6105e5846104bf565b810160208510156105f4578190505b610608610600856104bf565b8301826105a8565b50505b505050565b5f82821c905092915050565b5f61062b5f1984600802610610565b1980831691505092915050565b5f610643838361061c565b9150826002028217905092915050565b61065c82610233565b67ffffffffffffffff811115610675576106746102e5565b5b61067f825461047d565b61068a8282856105ca565b5f60209050601f8311600181146106bb575f84156106a9578287015190505b6106b38582610638565b86555061071a565b601f1984166106c9866104ad565b5f5b828110156106f0578489015182556001820191506020850194506020810190506106cb565b8683101561070d5784890151610709601f89168261061c565b8355505b6001600288020188555050505b50505050505056fea264697066735822122076ec1185be44a2d9907d32e9a67def28132d8660ac84a98eaa7190bcfa165a6164736f6c63430008150033",
  "immutableReferences": {},
  "source": "// SPDX-License-Identifier: MIT\npragma solidity ^0.8.0;\n\ncontract UserDataStorage {\n    mapping(address => string) private userData;\n\n    function storeUserData(string memory _data) public {\n        userData[msg.sender] = _data;\n    }\n\n    function retrieveUserData(address user) public view returns (string memory) {\n        return userData[user];\n    }\n}\n",
  "sourcePath": "/Users/bodi/projects/e-softworks.consulting/smartcontractswisdom.git/contracts/UserDataStorage.sol",
  "compiler": {
    "name": "solc",
    "version": "0.8.21+commit.d9974bed.Emscripten.clang"
  },
  "schemaVersion": "3.4.16",
  "updatedAt": "2025-03-18T15:56:41.685Z",
  "devdoc": {
    "kind": "dev",
    "methods": {},
    "version": 1
  },
  "userdoc": {
    "kind": "user",
    "methods": {},
    "version": 1
  }
}