{
  "_format": "hh-sol-artifact-1",
  "contractName": "UserProfile",
  "sourceName": "contracts/UserProfile.sol",
  "abi": [
    {
      "anonymous": false,
      "inputs": [
        {
          "indexed": true,
          "internalType": "address",
          "name": "user",
          "type": "address"
        },
        {
          "indexed": false,
          "internalType": "uint256",
          "name": "badgeId",
          "type": "uint256"
        }
      ],
      "name": "BadgeAdded",
      "type": "event"
    },
    {
      "anonymous": false,
      "inputs": [
        {
          "indexed": true,
          "internalType": "address",
          "name": "user",
          "type": "address"
        },
        {
          "indexed": false,
          "internalType": "uint256",
          "name": "courseId",
          "type": "uint256"
        }
      ],
      "name": "CourseAdded",
      "type": "event"
    },
    {
      "anonymous": false,
      "inputs": [
        {
          "indexed": true,
          "internalType": "address",
          "name": "user",
          "type": "address"
        },
        {
          "indexed": false,
          "internalType": "uint256",
          "name": "learningPlanId",
          "type": "uint256"
        }
      ],
      "name": "LearningPlanAdded",
      "type": "event"
    },
    {
      "anonymous": false,
      "inputs": [
        {
          "indexed": true,
          "internalType": "address",
          "name": "user",
          "type": "address"
        },
        {
          "indexed": false,
          "internalType": "uint256",
          "name": "mentorSessionId",
          "type": "uint256"
        }
      ],
      "name": "MentorSessionAdded",
      "type": "event"
    },
    {
      "anonymous": false,
      "inputs": [
        {
          "indexed": true,
          "internalType": "address",
          "name": "user",
          "type": "address"
        },
        {
          "indexed": false,
          "internalType": "string",
          "name": "name",
          "type": "string"
        },
        {
          "indexed": false,
          "internalType": "string",
          "name": "bio",
          "type": "string"
        },
        {
          "indexed": false,
          "internalType": "string",
          "name": "profilePhoto",
          "type": "string"
        }
      ],
      "name": "ProfileUpdated",
      "type": "event"
    },
    {
      "anonymous": false,
      "inputs": [
        {
          "indexed": true,
          "internalType": "address",
          "name": "user",
          "type": "address"
        },
        {
          "indexed": false,
          "internalType": "uint256",
          "name": "amount",
          "type": "uint256"
        }
      ],
      "name": "TokensUpdated",
      "type": "event"
    },
    {
      "inputs": [
        {
          "internalType": "uint256",
          "name": "badgeId",
          "type": "uint256"
        }
      ],
      "name": "addBadge",
      "outputs": [],
      "stateMutability": "nonpayable",
      "type": "function"
    },
    {
      "inputs": [
        {
          "internalType": "address",
          "name": "user",
          "type": "address"
        },
        {
          "internalType": "uint256",
          "name": "courseId",
          "type": "uint256"
        }
      ],
      "name": "addCourse",
      "outputs": [],
      "stateMutability": "nonpayable",
      "type": "function"
    },
    {
      "inputs": [
        {
          "internalType": "uint256",
          "name": "planId",
          "type": "uint256"
        }
      ],
      "name": "addLearningPlan",
      "outputs": [],
      "stateMutability": "nonpayable",
      "type": "function"
    },
    {
      "inputs": [
        {
          "internalType": "uint256",
          "name": "sessionId",
          "type": "uint256"
        }
      ],
      "name": "addMentorSession",
      "outputs": [],
      "stateMutability": "nonpayable",
      "type": "function"
    },
    {
      "inputs": [
        {
          "internalType": "address",
          "name": "user",
          "type": "address"
        }
      ],
      "name": "getCourses",
      "outputs": [
        {
          "internalType": "uint256[]",
          "name": "",
          "type": "uint256[]"
        }
      ],
      "stateMutability": "view",
      "type": "function"
    },
    {
      "inputs": [
        {
          "internalType": "address",
          "name": "user",
          "type": "address"
        }
      ],
      "name": "getUserProfile",
      "outputs": [
        {
          "internalType": "string",
          "name": "",
          "type": "string"
        },
        {
          "internalType": "string",
          "name": "",
          "type": "string"
        },
        {
          "internalType": "string",
          "name": "",
          "type": "string"
        },
        {
          "internalType": "uint256",
          "name": "",
          "type": "uint256"
        },
        {
          "internalType": "uint256[]",
          "name": "",
          "type": "uint256[]"
        },
        {
          "internalType": "uint256[]",
          "name": "",
          "type": "uint256[]"
        },
        {
          "internalType": "uint256[]",
          "name": "",
          "type": "uint256[]"
        },
        {
          "internalType": "uint256[]",
          "name": "",
          "type": "uint256[]"
        }
      ],
      "stateMutability": "view",
      "type": "function"
    },
    {
      "inputs": [
        {
          "internalType": "string",
          "name": "name",
          "type": "string"
        },
        {
          "internalType": "string",
          "name": "bio",
          "type": "string"
        },
        {
          "internalType": "string",
          "name": "profilePhoto",
          "type": "string"
        }
      ],
      "name": "registerUser",
      "outputs": [],
      "stateMutability": "nonpayable",
      "type": "function"
    },
    {
      "inputs": [
        {
          "internalType": "uint256",
          "name": "amount",
          "type": "uint256"
        }
      ],
      "name": "updateTokens",
      "outputs": [],
      "stateMutability": "nonpayable",
      "type": "function"
    },
    {
      "inputs": [
        {
          "internalType": "string",
          "name": "name",
          "type": "string"
        },
        {
          "internalType": "string",
          "name": "bio",
          "type": "string"
        },
        {
          "internalType": "string",
          "name": "profilePhoto",
          "type": "string"
        }
      ],
      "name": "updateUser",
      "outputs": [],
      "stateMutability": "nonpayable",
      "type": "function"
    }
  ],
  "bytecode": "0x608060405234801561001057600080fd5b50610e5e806100206000396000f3fe608060405234801561001057600080fd5b50600436106100935760003560e01c8063987ee15611610066578063987ee156146100fc578063c2f7be8a14610123578063d0a63e7714610136578063d637dcfa14610149578063d7d53deb1461015c57600080fd5b80631b77648f146100985780634a0a1bf8146100c157806360903be6146100d65780637bdecea1146100e9575b600080fd5b6100ab6100a63660046109aa565b61016f565b6040516100b89190610a07565b60405180910390f35b6100d46100cf366004610a1a565b6101dc565b005b6100d46100e4366004610ae7565b610247565b6100d46100f7366004610b6f565b610303565b61010f61010a3660046109aa565b61037d565b6040516100b8989796959493929190610bce565b6100d4610131366004610b6f565b610716565b6100d4610144366004610b6f565b61079b565b6100d4610157366004610ae7565b610820565b6100d461016a366004610b6f565b610909565b6001600160a01b038116600090815260208181526040918290206008018054835181840281018401909452808452606093928301828280156101d057602002820191906000526020600020905b8154815260200190600101908083116101bc575b50505050509050919050565b6001600160a01b03821660008181526020818152604080832060080180546001810182559084529190922001839055517fe286cd8324fe410f09a3449991d62b3200c09244dfd683075cfcb78035e748de9061023b9084815260200190565b60405180910390a25050565b3360009081526001602052604090205460ff1661027f5760405162461bcd60e51b815260040161027690610c6f565b60405180910390fd5b336000908152602081905260409020806102998582610d25565b50600181016102a88482610d25565b50600281016102b78382610d25565b50336001600160a01b03167f6420daf1b58438e85465ef21dee378d307a509caab491149e3f066c5caf1266d8585856040516102f593929190610de5565b60405180910390a250505050565b3360009081526001602052604090205460ff166103325760405162461bcd60e51b815260040161027690610c6f565b336000818152602081815260409182902060030184905590518381527fa4f4df726d60e3886846ea1ee4281c6404b9090c5520f72046c34ccbcb20c60e91015b60405180910390a250565b6001600160a01b0381166000908152600160205260408120546060918291829190829081908190819060ff166103c55760405162461bcd60e51b815260040161027690610c6f565b60008060008b6001600160a01b03166001600160a01b03168152602001908152602001600020905080600001816001018260020183600301548460040185600501866006018760070187805461041a90610c9c565b80601f016020809104026020016040519081016040528092919081815260200182805461044690610c9c565b80156104935780601f1061046857610100808354040283529160200191610493565b820191906000526020600020905b81548152906001019060200180831161047657829003601f168201915b505050505097508680546104a690610c9c565b80601f01602080910402602001604051908101604052809291908181526020018280546104d290610c9c565b801561051f5780601f106104f45761010080835404028352916020019161051f565b820191906000526020600020905b81548152906001019060200180831161050257829003601f168201915b5050505050965085805461053290610c9c565b80601f016020809104026020016040519081016040528092919081815260200182805461055e90610c9c565b80156105ab5780601f10610580576101008083540402835291602001916105ab565b820191906000526020600020905b81548152906001019060200180831161058e57829003601f168201915b50505050509550838054806020026020016040519081016040528092919081815260200182805480156105fd57602002820191906000526020600020905b8154815260200190600101908083116105e9575b505050505093508280548060200260200160405190810160405280929190818152602001828054801561064f57602002820191906000526020600020905b81548152602001906001019080831161063b575b50505050509250818054806020026020016040519081016040528092919081815260200182805480156106a157602002820191906000526020600020905b81548152602001906001019080831161068d575b50505050509150808054806020026020016040519081016040528092919081815260200182805480156106f357602002820191906000526020600020905b8154815260200190600101908083116106df575b505050505090509850985098509850985098509850985050919395975091939597565b3360009081526001602052604090205460ff166107455760405162461bcd60e51b815260040161027690610c6f565b3360008181526020818152604080832060070180546001810182559084529190922001839055517f23b76f83bbb67f70abe29d17f1bcf82526b32fde6dd97e1d20726afcd376d78f906103729084815260200190565b3360009081526001602052604090205460ff166107ca5760405162461bcd60e51b815260040161027690610c6f565b3360008181526020818152604080832060050180546001810182559084529190922001839055517f7872d6dcfaa520ffdce472ccd905f26ac75c353de0e61b44ec9158d48a053c12906103729084815260200190565b3360009081526001602052604090205460ff16156108805760405162461bcd60e51b815260206004820152601760248201527f5573657220616c726561647920726567697374657265640000000000000000006044820152606401610276565b3360009081526020819052604090208061089a8582610d25565b50600181016108a98482610d25565b50600281016108b88382610d25565b5033600081815260016020819052604091829020805460ff19169091179055517f6420daf1b58438e85465ef21dee378d307a509caab491149e3f066c5caf1266d906102f590879087908790610de5565b3360009081526001602052604090205460ff166109385760405162461bcd60e51b815260040161027690610c6f565b3360008181526020818152604080832060060180546001810182559084529190922001839055517fdb9659cf99e85a2ab0ecaa71a65db451478c90f6e3f72971f7eb6bdff5341558906103729084815260200190565b80356001600160a01b03811681146109a557600080fd5b919050565b6000602082840312156109bc57600080fd5b6109c58261098e565b9392505050565b600081518084526020808501945080840160005b838110156109fc578151875295820195908201906001016109e0565b509495945050505050565b6020815260006109c560208301846109cc565b60008060408385031215610a2d57600080fd5b610a368361098e565b946020939093013593505050565b634e487b7160e01b600052604160045260246000fd5b600082601f830112610a6b57600080fd5b813567ffffffffffffffff80821115610a8657610a86610a44565b604051601f8301601f19908116603f01168101908282118183101715610aae57610aae610a44565b81604052838152866020858801011115610ac757600080fd5b836020870160208301376000602085830101528094505050505092915050565b600080600060608486031215610afc57600080fd5b833567ffffffffffffffff80821115610b1457600080fd5b610b2087838801610a5a565b94506020860135915080821115610b3657600080fd5b610b4287838801610a5a565b93506040860135915080821115610b5857600080fd5b50610b6586828701610a5a565b9150509250925092565b600060208284031215610b8157600080fd5b5035919050565b6000815180845260005b81811015610bae57602081850181015186830182015201610b92565b506000602082860101526020601f19601f83011685010191505092915050565b6000610100808352610be28184018c610b88565b90508281036020840152610bf6818b610b88565b90508281036040840152610c0a818a610b88565b90508760608401528281036080840152610c2481886109cc565b905082810360a0840152610c3881876109cc565b905082810360c0840152610c4c81866109cc565b905082810360e0840152610c6081856109cc565b9b9a5050505050505050505050565b602080825260139082015272155cd95c881b9bdd081c9959da5cdd195c9959606a1b604082015260600190565b600181811c90821680610cb057607f821691505b602082108103610cd057634e487b7160e01b600052602260045260246000fd5b50919050565b601f821115610d2057600081815260208120601f850160051c81016020861015610cfd5750805b601f850160051c820191505b81811015610d1c57828155600101610d09565b5050505b505050565b815167ffffffffffffffff811115610d3f57610d3f610a44565b610d5381610d4d8454610c9c565b84610cd6565b602080601f831160018114610d885760008415610d705750858301515b600019600386901b1c1916600185901b178555610d1c565b600085815260208120601f198616915b82811015610db757888601518255948401946001909101908401610d98565b5085821015610dd55787850151600019600388901b60f8161c191681555b5050505050600190811b01905550565b606081526000610df86060830186610b88565b8281036020840152610e0a8186610b88565b90508281036040840152610e1e8185610b88565b969550505050505056fea2646970667358221220f9b250c1361c86646458a44b585a0c49f42c3200f39475cf2220063d036e05ca64736f6c63430008140033",
  "linkReferences": {},
  "deployedLinkReferences": {}
}