{
  "_format": "hh-sol-artifact-1",
  "contractName": "UserDataStorage",
  "sourceName": "contracts/UserDataStorage.sol",
  "abi": [
    {
      "inputs": [
        {
          "internalType": "address",
          "name": "user",
          "type": "address"
        }
      ],
      "name": "retrieveUserData",
      "outputs": [
        {
          "internalType": "string",
          "name": "",
          "type": "string"
        }
      ],
      "stateMutability": "view",
      "type": "function"
    },
    {
      "inputs": [
        {
          "internalType": "string",
          "name": "_data",
          "type": "string"
        }
      ],
      "name": "storeUserData",
      "outputs": [],
      "stateMutability": "nonpayable",
      "type": "function"
    }
  ],
  "bytecode": "0x608060405234801561001057600080fd5b50610406806100206000396000f3fe608060405234801561001057600080fd5b50600436106100365760003560e01c8063579176a31461003b578063d4628c7f14610064575b600080fd5b61004e610049366004610142565b610079565b60405161005b9190610172565b60405180910390f35b6100776100723660046101d6565b610125565b005b6001600160a01b03811660009081526020819052604090208054606091906100a090610287565b80601f01602080910402602001604051908101604052809291908181526020018280546100cc90610287565b80156101195780601f106100ee57610100808354040283529160200191610119565b820191906000526020600020905b8154815290600101906020018083116100fc57829003601f168201915b50505050509050919050565b33600090815260208190526040902061013e8282610310565b5050565b60006020828403121561015457600080fd5b81356001600160a01b038116811461016b57600080fd5b9392505050565b600060208083528351808285015260005b8181101561019f57858101830151858201604001528201610183565b506000604082860101526040601f19601f8301168501019250505092915050565b634e487b7160e01b600052604160045260246000fd5b6000602082840312156101e857600080fd5b813567ffffffffffffffff8082111561020057600080fd5b818401915084601f83011261021457600080fd5b813581811115610226576102266101c0565b604051601f8201601f19908116603f0116810190838211818310171561024e5761024e6101c0565b8160405282815287602084870101111561026757600080fd5b826020860160208301376000928101602001929092525095945050505050565b600181811c9082168061029b57607f821691505b6020821081036102bb57634e487b7160e01b600052602260045260246000fd5b50919050565b601f82111561030b57600081815260208120601f850160051c810160208610156102e85750805b601f850160051c820191505b81811015610307578281556001016102f4565b5050505b505050565b815167ffffffffffffffff81111561032a5761032a6101c0565b61033e816103388454610287565b846102c1565b602080601f831160018114610373576000841561035b5750858301515b600019600386901b1c1916600185901b178555610307565b600085815260208120601f198616915b828110156103a257888601518255948401946001909101908401610383565b50858210156103c05787850151600019600388901b60f8161c191681555b5050505050600190811b0190555056fea26469706673582212204f3e151c91558dcad4b0c2128a0ba402216f11a9c9d69da997d78a10d6e1a12a64736f6c63430008140033",
  "linkReferences": {},
  "deployedLinkReferences": {}
}