{
  "_format": "hh-sol-artifact-1",
  "contractName": "TokenDistributor",
  "sourceName": "contracts/TokenDistributor.sol",
  "abi": [
    {
      "anonymous": false,
      "inputs": [
        {
          "indexed": true,
          "internalType": "address",
          "name": "user",
          "type": "address"
        },
        {
          "indexed": false,
          "internalType": "uint256",
          "name": "amount",
          "type": "uint256"
        }
      ],
      "name": "TokensDistributed",
      "type": "event"
    },
    {
      "inputs": [],
      "name": "INITIAL_TOKENS",
      "outputs": [
        {
          "internalType": "uint256",
          "name": "",
          "type": "uint256"
        }
      ],
      "stateMutability": "view",
      "type": "function"
    },
    {
      "inputs": [],
      "name": "claimTokens",
      "outputs": [],
      "stateMutability": "nonpayable",
      "type": "function"
    },
    {
      "inputs": [
        {
          "internalType": "address",
          "name": "user",
          "type": "address"
        }
      ],
      "name": "getBalance",
      "outputs": [
        {
          "internalType": "uint256",
          "name": "",
          "type": "uint256"
        }
      ],
      "stateMutability": "view",
      "type": "function"
    }
  ],
  "bytecode": "0x608060405234801561001057600080fd5b506101ca806100206000396000f3fe608060405234801561001057600080fd5b50600436106100415760003560e01c806348c54b9d1461004657806385c8bd6d14610050578063f8b2cb4f1461006b575b600080fd5b61004e610094565b005b6100596103e881565b60405190815260200160405180910390f35b610059610079366004610164565b6001600160a01b031660009081526020819052604090205490565b3360009081526001602052604090205460ff16156101075760405162461bcd60e51b815260206004820152602660248201527f596f75206861766520616c726561647920726563656976656420796f7572207460448201526537b5b2b7399760d11b606482015260840160405180910390fd5b336000818152602081815260408083206103e890819055600180845293829020805460ff1916909417909355519182527f16b0da2ffcb90c6723317bd637d9aad7f04711f42bbe0ac0918ebe10f1f9001c910160405180910390a2565b60006020828403121561017657600080fd5b81356001600160a01b038116811461018d57600080fd5b939250505056fea264697066735822122081579bc64a58e56306020bf29d549f8e1bb795e15d07bb7a396aa7fc13e1993164736f6c63430008140033",
  "linkReferences": {},
  "deployedLinkReferences": {}
}