{
  "_format": "hh-sol-artifact-1",
  "contractName": "StoreData",
  "sourceName": "contracts/savedatabc.sol",
  "abi": [
    {
      "anonymous": false,
      "inputs": [
        {
          "indexed": true,
          "internalType": "address",
          "name": "user",
          "type": "address"
        },
        {
          "indexed": false,
          "internalType": "string",
          "name": "data",
          "type": "string"
        }
      ],
      "name": "DataStored",
      "type": "event"
    },
    {
      "inputs": [
        {
          "internalType": "address",
          "name": "user",
          "type": "address"
        }
      ],
      "name": "retrieveUserData",
      "outputs": [
        {
          "internalType": "string",
          "name": "",
          "type": "string"
        }
      ],
      "stateMutability": "view",
      "type": "function"
    },
    {
      "inputs": [
        {
          "internalType": "string",
          "name": "_data",
          "type": "string"
        }
      ],
      "name": "storeUserData",
      "outputs": [],
      "stateMutability": "nonpayable",
      "type": "function"
    },
    {
      "inputs": [
        {
          "internalType": "address",
          "name": "",
          "type": "address"
        }
      ],
      "name": "userData",
      "outputs": [
        {
          "internalType": "string",
          "name": "",
          "type": "string"
        }
      ],
      "stateMutability": "view",
      "type": "function"
    }
  ],
  "bytecode": "0x608060405234801561001057600080fd5b506104ff806100206000396000f3fe608060405234801561001057600080fd5b50600436106100415760003560e01c8063579176a314610046578063c89109131461006f578063d4628c7f14610082575b600080fd5b61005961005436600461023b565b610097565b604051610066919061026b565b60405180910390f35b61005961007d36600461023b565b610143565b6100956100903660046102cf565b6101dd565b005b6001600160a01b03811660009081526020819052604090208054606091906100be90610380565b80601f01602080910402602001604051908101604052809291908181526020018280546100ea90610380565b80156101375780601f1061010c57610100808354040283529160200191610137565b820191906000526020600020905b81548152906001019060200180831161011a57829003601f168201915b50505050509050919050565b6000602081905290815260409020805461015c90610380565b80601f016020809104026020016040519081016040528092919081815260200182805461018890610380565b80156101d55780601f106101aa576101008083540402835291602001916101d5565b820191906000526020600020905b8154815290600101906020018083116101b857829003601f168201915b505050505081565b3360009081526020819052604090206101f68282610409565b50336001600160a01b03167f4b33dafb50dac5530c30aca4e4069fd67a18220888b874b8519558d1769d49a182604051610230919061026b565b60405180910390a250565b60006020828403121561024d57600080fd5b81356001600160a01b038116811461026457600080fd5b9392505050565b600060208083528351808285015260005b818110156102985785810183015185820160400152820161027c565b506000604082860101526040601f19601f8301168501019250505092915050565b634e487b7160e01b600052604160045260246000fd5b6000602082840312156102e157600080fd5b813567ffffffffffffffff808211156102f957600080fd5b818401915084601f83011261030d57600080fd5b81358181111561031f5761031f6102b9565b604051601f8201601f19908116603f01168101908382118183101715610347576103476102b9565b8160405282815287602084870101111561036057600080fd5b826020860160208301376000928101602001929092525095945050505050565b600181811c9082168061039457607f821691505b6020821081036103b457634e487b7160e01b600052602260045260246000fd5b50919050565b601f82111561040457600081815260208120601f850160051c810160208610156103e15750805b601f850160051c820191505b81811015610400578281556001016103ed565b5050505b505050565b815167ffffffffffffffff811115610423576104236102b9565b610437816104318454610380565b846103ba565b602080601f83116001811461046c57600084156104545750858301515b600019600386901b1c1916600185901b178555610400565b600085815260208120601f198616915b8281101561049b5788860151825594840194600190910190840161047c565b50858210156104b95787850151600019600388901b60f8161c191681555b5050505050600190811b0190555056fea2646970667358221220479cf6b3eee08bc84823196bf9479d4c8b092e53e6623919707847e3abfc542064736f6c63430008140033",
  "linkReferences": {},
  "deployedLinkReferences": {}
}