{
  "_format": "hh-sol-artifact-1",
  "contractName": "CourseManager",
  "sourceName": "contracts/CourseManager.sol",
  "abi": [
    {
      "inputs": [
        {
          "internalType": "address",
          "name": "_wsdTokenAddress",
          "type": "address"
        }
      ],
      "stateMutability": "nonpayable",
      "type": "constructor"
    },
    {
      "anonymous": false,
      "inputs": [
        {
          "indexed": true,
          "internalType": "address",
          "name": "user",
          "type": "address"
        },
        {
          "indexed": true,
          "internalType": "uint256",
          "name": "courseId",
          "type": "uint256"
        },
        {
          "indexed": false,
          "internalType": "uint256",
          "name": "price",
          "type": "uint256"
        }
      ],
      "name": "CoursePurchased",
      "type": "event"
    },
    {
      "inputs": [
        {
          "internalType": "uint256",
          "name": "courseId",
          "type": "uint256"
        }
      ],
      "name": "buyCourse",
      "outputs": [],
      "stateMutability": "nonpayable",
      "type": "function"
    },
    {
      "inputs": [
        {
          "internalType": "uint256",
          "name": "",
          "type": "uint256"
        }
      ],
      "name": "coursePrices",
      "outputs": [
        {
          "internalType": "uint256",
          "name": "",
          "type": "uint256"
        }
      ],
      "stateMutability": "view",
      "type": "function"
    },
    {
      "inputs": [
        {
          "internalType": "address",
          "name": "",
          "type": "address"
        },
        {
          "internalType": "uint256",
          "name": "",
          "type": "uint256"
        }
      ],
      "name": "hasAccess",
      "outputs": [
        {
          "internalType": "bool",
          "name": "",
          "type": "bool"
        }
      ],
      "stateMutability": "view",
      "type": "function"
    },
    {
      "inputs": [
        {
          "internalType": "address",
          "name": "user",
          "type": "address"
        },
        {
          "internalType": "uint256",
          "name": "courseId",
          "type": "uint256"
        }
      ],
      "name": "hasBought",
      "outputs": [
        {
          "internalType": "bool",
          "name": "",
          "type": "bool"
        }
      ],
      "stateMutability": "view",
      "type": "function"
    },
    {
      "inputs": [],
      "name": "owner",
      "outputs": [
        {
          "internalType": "address",
          "name": "",
          "type": "address"
        }
      ],
      "stateMutability": "view",
      "type": "function"
    },
    {
      "inputs": [
        {
          "internalType": "uint256",
          "name": "courseId",
          "type": "uint256"
        },
        {
          "internalType": "uint256",
          "name": "price",
          "type": "uint256"
        }
      ],
      "name": "setCoursePrice",
      "outputs": [],
      "stateMutability": "nonpayable",
      "type": "function"
    },
    {
      "inputs": [],
      "name": "wsdToken",
      "outputs": [
        {
          "internalType": "contract IERC20",
          "name": "",
          "type": "address"
        }
      ],
      "stateMutability": "view",
      "type": "function"
    }
  ],
  "bytecode": "0x608060405234801561001057600080fd5b506040516104d93803806104d983398101604081905261002f9161005d565b600080546001600160a01b039092166001600160a01b0319928316179055600180549091163317905561008d565b60006020828403121561006f57600080fd5b81516001600160a01b038116811461008657600080fd5b9392505050565b61043d8061009c6000396000f3fe608060405234801561001057600080fd5b506004361061007d5760003560e01c8063a637bef71161005b578063a637bef714610110578063c6530e4114610123578063cd411a9d14610151578063f6c3372f1461017f57600080fd5b8063194d73a2146100825780635f6d4b68146100975780638da5cb5b146100e5575b600080fd5b61009561009036600461036b565b610192565b005b6100d06100a5366004610384565b6001600160a01b03919091166000908152600360209081526040808320938352929052205460ff1690565b60405190151581526020015b60405180910390f35b6001546100f8906001600160a01b031681565b6040516001600160a01b0390911681526020016100dc565b61009561011e3660046103bc565b6102ff565b6100d0610131366004610384565b600360209081526000928352604080842090915290825290205460ff1681565b61017161015f36600461036b565b60026020526000908152604090205481565b6040519081526020016100dc565b6000546100f8906001600160a01b031681565b600081815260026020526040902054806101ea5760405162461bcd60e51b8152602060048201526014602482015273436f75727365206e6f7420617661696c61626c6560601b60448201526064015b60405180910390fd5b6000546040516323b872dd60e01b8152336004820152306024820152604481018390526001600160a01b03909116906323b872dd906064016020604051808303816000875af1158015610241573d6000803e3d6000fd5b505050506040513d601f19601f8201168201806040525081019061026591906103de565b6102a25760405162461bcd60e51b815260206004820152600e60248201526d14185e5b595b9d0819985a5b195960921b60448201526064016101e1565b336000818152600360209081526040808320868452825291829020805460ff1916600117905590518381528492917f4b71ef6d807a9a201a6f28d104a403722af74f85b8f2042a8d152bd2a78f5586910160405180910390a35050565b6001546001600160a01b031633146103595760405162461bcd60e51b815260206004820152601960248201527f4f6e6c79206f776e65722063616e20736574207072696365730000000000000060448201526064016101e1565b60009182526002602052604090912055565b60006020828403121561037d57600080fd5b5035919050565b6000806040838503121561039757600080fd5b82356001600160a01b03811681146103ae57600080fd5b946020939093013593505050565b600080604083850312156103cf57600080fd5b50508035926020909101359150565b6000602082840312156103f057600080fd5b8151801515811461040057600080fd5b939250505056fea264697066735822122004a9955f28c223ddf644485214e98ed79f1f147aa6a4ef38576942b2dd5c028c64736f6c63430008140033",
  "linkReferences": {},
  "deployedLinkReferences": {}
}