{"contracts/CourseManager.sol":{"CourseManager":{"abi":[{"inputs":[{"internalType":"address","name":"_wsdTokenAddress","type":"address"}],"stateMutability":"nonpayable","type":"constructor"},{"anonymous":false,"inputs":[{"indexed":true,"internalType":"address","name":"user","type":"address"},{"indexed":true,"internalType":"uint256","name":"courseId","type":"uint256"},{"indexed":false,"internalType":"uint256","name":"price","type":"uint256"}],"name":"CoursePurchased","type":"event"},{"inputs":[{"internalType":"uint256","name":"courseId","type":"uint256"}],"name":"buyCourse","outputs":[],"stateMutability":"nonpayable","type":"function"},{"inputs":[{"internalType":"uint256","name":"","type":"uint256"}],"name":"coursePrices","outputs":[{"internalType":"uint256","name":"","type":"uint256"}],"stateMutability":"view","type":"function"},{"inputs":[{"internalType":"address","name":"","type":"address"},{"internalType":"uint256","name":"","type":"uint256"}],"name":"hasAccess","outputs":[{"internalType":"bool","name":"","type":"bool"}],"stateMutability":"view","type":"function"},{"inputs":[{"internalType":"address","name":"user","type":"address"},{"internalType":"uint256","name":"courseId","type":"uint256"}],"name":"hasBought","outputs":[{"internalType":"bool","name":"","type":"bool"}],"stateMutability":"view","type":"function"},{"inputs":[],"name":"owner","outputs":[{"internalType":"address","name":"","type":"address"}],"stateMutability":"view","type":"function"},{"inputs":[{"internalType":"uint256","name":"courseId","type":"uint256"},{"internalType":"uint256","name":"price","type":"uint256"}],"name":"setCoursePrice","outputs":[],"stateMutability":"nonpayable","type":"function"},{"inputs":[],"name":"wsdToken","outputs":[{"internalType":"contract IERC20","name":"","type":"address"}],"stateMutability":"view","type":"function"}],"evm":{"bytecode":{"linkReferences":{},"object":"608060405234801561001057600080fd5b506040516104d93803806104d983398101604081905261002f9161005d565b600080546001600160a01b039092166001600160a01b0319928316179055600180549091163317905561008d565b60006020828403121561006f57600080fd5b81516001600160a01b038116811461008657600080fd5b9392505050565b61043d8061009c6000396000f3fe608060405234801561001057600080fd5b506004361061007d5760003560e01c8063a637bef71161005b578063a637bef714610110578063c6530e4114610123578063cd411a9d14610151578063f6c3372f1461017f57600080fd5b8063194d73a2146100825780635f6d4b68146100975780638da5cb5b146100e5575b600080fd5b61009561009036600461036b565b610192565b005b6100d06100a5366004610384565b6001600160a01b03919091166000908152600360209081526040808320938352929052205460ff1690565b60405190151581526020015b60405180910390f35b6001546100f8906001600160a01b031681565b6040516001600160a01b0390911681526020016100dc565b61009561011e3660046103bc565b6102ff565b6100d0610131366004610384565b600360209081526000928352604080842090915290825290205460ff1681565b61017161015f36600461036b565b60026020526000908152604090205481565b6040519081526020016100dc565b6000546100f8906001600160a01b031681565b600081815260026020526040902054806101ea5760405162461bcd60e51b8152602060048201526014602482015273436f75727365206e6f7420617661696c61626c6560601b60448201526064015b60405180910390fd5b6000546040516323b872dd60e01b8152336004820152306024820152604481018390526001600160a01b03909116906323b872dd906064016020604051808303816000875af1158015610241573d6000803e3d6000fd5b505050506040513d601f19601f8201168201806040525081019061026591906103de565b6102a25760405162461bcd60e51b815260206004820152600e60248201526d14185e5b595b9d0819985a5b195960921b60448201526064016101e1565b336000818152600360209081526040808320868452825291829020805460ff1916600117905590518381528492917f4b71ef6d807a9a201a6f28d104a403722af74f85b8f2042a8d152bd2a78f5586910160405180910390a35050565b6001546001600160a01b031633146103595760405162461bcd60e51b815260206004820152601960248201527f4f6e6c79206f776e65722063616e20736574207072696365730000000000000060448201526064016101e1565b60009182526002602052604090912055565b60006020828403121561037d57600080fd5b5035919050565b6000806040838503121561039757600080fd5b82356001600160a01b03811681146103ae57600080fd5b946020939093013593505050565b600080604083850312156103cf57600080fd5b50508035926020909101359150565b6000602082840312156103f057600080fd5b8151801515811461040057600080fd5b939250505056fea264697066735822122004a9955f28c223ddf644485214e98ed79f1f147aa6a4ef38576942b2dd5c028c64736f6c63430008140033","opcodes":"PUSH1 0x80 PUSH1 0x40 MSTORE CALLVALUE DUP1 ISZERO PUSH2 0x10 JUMPI PUSH1 0x0 DUP1 REVERT JUMPDEST POP PUSH1 0x40 MLOAD PUSH2 0x4D9 CODESIZE SUB DUP1 PUSH2 0x4D9 DUP4 CODECOPY DUP2 ADD PUSH1 0x40 DUP2 SWAP1 MSTORE PUSH2 0x2F SWAP2 PUSH2 0x5D JUMP JUMPDEST PUSH1 0x0 DUP1 SLOAD PUSH1 0x1 PUSH1 0x1 PUSH1 0xA0 SHL SUB SWAP1 SWAP3 AND PUSH1 0x1 PUSH1 0x1 PUSH1 0xA0 SHL SUB NOT SWAP3 DUP4 AND OR SWAP1 SSTORE PUSH1 0x1 DUP1 SLOAD SWAP1 SWAP2 AND CALLER OR SWAP1 SSTORE PUSH2 0x8D JUMP JUMPDEST PUSH1 0x0 PUSH1 0x20 DUP3 DUP5 SUB SLT ISZERO PUSH2 0x6F JUMPI PUSH1 0x0 DUP1 REVERT JUMPDEST DUP2 MLOAD PUSH1 0x1 PUSH1 0x1 PUSH1 0xA0 SHL SUB DUP2 AND DUP2 EQ PUSH2 0x86 JUMPI PUSH1 0x0 DUP1 REVERT JUMPDEST SWAP4 SWAP3 POP POP POP JUMP JUMPDEST PUSH2 0x43D DUP1 PUSH2 0x9C PUSH1 0x0 CODECOPY PUSH1 0x0 RETURN INVALID PUSH1 0x80 PUSH1 0x40 MSTORE CALLVALUE DUP1 ISZERO PUSH2 0x10 JUMPI PUSH1 0x0 DUP1 REVERT JUMPDEST POP PUSH1 0x4 CALLDATASIZE LT PUSH2 0x7D JUMPI PUSH1 0x0 CALLDATALOAD PUSH1 0xE0 SHR DUP1 PUSH4 0xA637BEF7 GT PUSH2 0x5B JUMPI DUP1 PUSH4 0xA637BEF7 EQ PUSH2 0x110 JUMPI DUP1 PUSH4 0xC6530E41 EQ PUSH2 0x123 JUMPI DUP1 PUSH4 0xCD411A9D EQ PUSH2 0x151 JUMPI DUP1 PUSH4 0xF6C3372F EQ PUSH2 0x17F JUMPI PUSH1 0x0 DUP1 REVERT JUMPDEST DUP1 PUSH4 0x194D73A2 EQ PUSH2 0x82 JUMPI DUP1 PUSH4 0x5F6D4B68 EQ PUSH2 0x97 JUMPI DUP1 PUSH4 0x8DA5CB5B EQ PUSH2 0xE5 JUMPI JUMPDEST PUSH1 0x0 DUP1 REVERT JUMPDEST PUSH2 0x95 PUSH2 0x90 CALLDATASIZE PUSH1 0x4 PUSH2 0x36B JUMP JUMPDEST PUSH2 0x192 JUMP JUMPDEST STOP JUMPDEST PUSH2 0xD0 PUSH2 0xA5 CALLDATASIZE PUSH1 0x4 PUSH2 0x384 JUMP JUMPDEST PUSH1 0x1 PUSH1 0x1 PUSH1 0xA0 SHL SUB SWAP2 SWAP1 SWAP2 AND PUSH1 0x0 SWAP1 DUP2 MSTORE PUSH1 0x3 PUSH1 0x20 SWAP1 DUP2 MSTORE PUSH1 0x40 DUP1 DUP4 KECCAK256 SWAP4 DUP4 MSTORE SWAP3 SWAP1 MSTORE KECCAK256 SLOAD PUSH1 0xFF AND SWAP1 JUMP JUMPDEST PUSH1 0x40 MLOAD SWAP1 ISZERO ISZERO DUP2 MSTORE PUSH1 0x20 ADD JUMPDEST PUSH1 0x40 MLOAD DUP1 SWAP2 SUB SWAP1 RETURN JUMPDEST PUSH1 0x1 SLOAD PUSH2 0xF8 SWAP1 PUSH1 0x1 PUSH1 0x1 PUSH1 0xA0 SHL SUB AND DUP2 JUMP JUMPDEST PUSH1 0x40 MLOAD PUSH1 0x1 PUSH1 0x1 PUSH1 0xA0 SHL SUB SWAP1 SWAP2 AND DUP2 MSTORE PUSH1 0x20 ADD PUSH2 0xDC JUMP JUMPDEST PUSH2 0x95 PUSH2 0x11E CALLDATASIZE PUSH1 0x4 PUSH2 0x3BC JUMP JUMPDEST PUSH2 0x2FF JUMP JUMPDEST PUSH2 0xD0 PUSH2 0x131 CALLDATASIZE PUSH1 0x4 PUSH2 0x384 JUMP JUMPDEST PUSH1 0x3 PUSH1 0x20 SWAP1 DUP2 MSTORE PUSH1 0x0 SWAP3 DUP4 MSTORE PUSH1 0x40 DUP1 DUP5 KECCAK256 SWAP1 SWAP2 MSTORE SWAP1 DUP3 MSTORE SWAP1 KECCAK256 SLOAD PUSH1 0xFF AND DUP2 JUMP JUMPDEST PUSH2 0x171 PUSH2 0x15F CALLDATASIZE PUSH1 0x4 PUSH2 0x36B JUMP JUMPDEST PUSH1 0x2 PUSH1 0x20 MSTORE PUSH1 0x0 SWAP1 DUP2 MSTORE PUSH1 0x40 SWAP1 KECCAK256 SLOAD DUP2 JUMP JUMPDEST PUSH1 0x40 MLOAD SWAP1 DUP2 MSTORE PUSH1 0x20 ADD PUSH2 0xDC JUMP JUMPDEST PUSH1 0x0 SLOAD PUSH2 0xF8 SWAP1 PUSH1 0x1 PUSH1 0x1 PUSH1 0xA0 SHL SUB AND DUP2 JUMP JUMPDEST PUSH1 0x0 DUP2 DUP2 MSTORE PUSH1 0x2 PUSH1 0x20 MSTORE PUSH1 0x40 SWAP1 KECCAK256 SLOAD DUP1 PUSH2 0x1EA JUMPI PUSH1 0x40 MLOAD PUSH3 0x461BCD PUSH1 0xE5 SHL DUP2 MSTORE PUSH1 0x20 PUSH1 0x4 DUP3 ADD MSTORE PUSH1 0x14 PUSH1 0x24 DUP3 ADD MSTORE PUSH20 0x436F75727365206E6F7420617661696C61626C65 PUSH1 0x60 SHL PUSH1 0x44 DUP3 ADD MSTORE PUSH1 0x64 ADD JUMPDEST PUSH1 0x40 MLOAD DUP1 SWAP2 SUB SWAP1 REVERT JUMPDEST PUSH1 0x0 SLOAD PUSH1 0x40 MLOAD PUSH4 0x23B872DD PUSH1 0xE0 SHL DUP2 MSTORE CALLER PUSH1 0x4 DUP3 ADD MSTORE ADDRESS PUSH1 0x24 DUP3 ADD MSTORE PUSH1 0x44 DUP2 ADD DUP4 SWAP1 MSTORE PUSH1 0x1 PUSH1 0x1 PUSH1 0xA0 SHL SUB SWAP1 SWAP2 AND SWAP1 PUSH4 0x23B872DD SWAP1 PUSH1 0x64 ADD PUSH1 0x20 PUSH1 0x40 MLOAD DUP1 DUP4 SUB DUP2 PUSH1 0x0 DUP8 GAS CALL ISZERO DUP1 ISZERO PUSH2 0x241 JUMPI RETURNDATASIZE PUSH1 0x0 DUP1 RETURNDATACOPY RETURNDATASIZE PUSH1 0x0 REVERT JUMPDEST POP POP POP POP PUSH1 0x40 MLOAD RETURNDATASIZE PUSH1 0x1F NOT PUSH1 0x1F DUP3 ADD AND DUP3 ADD DUP1 PUSH1 0x40 MSTORE POP DUP2 ADD SWAP1 PUSH2 0x265 SWAP2 SWAP1 PUSH2 0x3DE JUMP JUMPDEST PUSH2 0x2A2 JUMPI PUSH1 0x40 MLOAD PUSH3 0x461BCD PUSH1 0xE5 SHL DUP2 MSTORE PUSH1 0x20 PUSH1 0x4 DUP3 ADD MSTORE PUSH1 0xE PUSH1 0x24 DUP3 ADD MSTORE PUSH14 0x14185E5B595B9D0819985A5B1959 PUSH1 0x92 SHL PUSH1 0x44 DUP3 ADD MSTORE PUSH1 0x64 ADD PUSH2 0x1E1 JUMP JUMPDEST CALLER PUSH1 0x0 DUP2 DUP2 MSTORE PUSH1 0x3 PUSH1 0x20 SWAP1 DUP2 MSTORE PUSH1 0x40 DUP1 DUP4 KECCAK256 DUP7 DUP5 MSTORE DUP3 MSTORE SWAP2 DUP3 SWAP1 KECCAK256 DUP1 SLOAD PUSH1 0xFF NOT AND PUSH1 0x1 OR SWAP1 SSTORE SWAP1 MLOAD DUP4 DUP2 MSTORE DUP5 SWAP3 SWAP2 PUSH32 0x4B71EF6D807A9A201A6F28D104A403722AF74F85B8F2042A8D152BD2A78F5586 SWAP2 ADD PUSH1 0x40 MLOAD DUP1 SWAP2 SUB SWAP1 LOG3 POP POP JUMP JUMPDEST PUSH1 0x1 SLOAD PUSH1 0x1 PUSH1 0x1 PUSH1 0xA0 SHL SUB AND CALLER EQ PUSH2 0x359 JUMPI PUSH1 0x40 MLOAD PUSH3 0x461BCD PUSH1 0xE5 SHL DUP2 MSTORE PUSH1 0x20 PUSH1 0x4 DUP3 ADD MSTORE PUSH1 0x19 PUSH1 0x24 DUP3 ADD MSTORE PUSH32 0x4F6E6C79206F776E65722063616E207365742070726963657300000000000000 PUSH1 0x44 DUP3 ADD MSTORE PUSH1 0x64 ADD PUSH2 0x1E1 JUMP JUMPDEST PUSH1 0x0 SWAP2 DUP3 MSTORE PUSH1 0x2 PUSH1 0x20 MSTORE PUSH1 0x40 SWAP1 SWAP2 KECCAK256 SSTORE JUMP JUMPDEST PUSH1 0x0 PUSH1 0x20 DUP3 DUP5 SUB SLT ISZERO PUSH2 0x37D JUMPI PUSH1 0x0 DUP1 REVERT JUMPDEST POP CALLDATALOAD SWAP2 SWAP1 POP JUMP JUMPDEST PUSH1 0x0 DUP1 PUSH1 0x40 DUP4 DUP6 SUB SLT ISZERO PUSH2 0x397 JUMPI PUSH1 0x0 DUP1 REVERT JUMPDEST DUP3 CALLDATALOAD PUSH1 0x1 PUSH1 0x1 PUSH1 0xA0 SHL SUB DUP2 AND DUP2 EQ PUSH2 0x3AE JUMPI PUSH1 0x0 DUP1 REVERT JUMPDEST SWAP5 PUSH1 0x20 SWAP4 SWAP1 SWAP4 ADD CALLDATALOAD SWAP4 POP POP POP JUMP JUMPDEST PUSH1 0x0 DUP1 PUSH1 0x40 DUP4 DUP6 SUB SLT ISZERO PUSH2 0x3CF JUMPI PUSH1 0x0 DUP1 REVERT JUMPDEST POP POP DUP1 CALLDATALOAD SWAP3 PUSH1 0x20 SWAP1 SWAP2 ADD CALLDATALOAD SWAP2 POP JUMP JUMPDEST PUSH1 0x0 PUSH1 0x20 DUP3 DUP5 SUB SLT ISZERO PUSH2 0x3F0 JUMPI PUSH1 0x0 DUP1 REVERT JUMPDEST DUP2 MLOAD DUP1 ISZERO ISZERO DUP2 EQ PUSH2 0x400 JUMPI PUSH1 0x0 DUP1 REVERT JUMPDEST SWAP4 SWAP3 POP POP POP JUMP INVALID LOG2 PUSH5 0x6970667358 0x22 SLT KECCAK256 DIV 0xA9 SWAP6 PUSH0 0x28 0xC2 0x23 0xDD 0xF6 PREVRANDAO BASEFEE MSTORE EQ 0xE9 DUP15 0xD7 SWAP16 0x1F EQ PUSH27 0xA6A4EF38576942B2DD5C028C64736F6C6343000814003300000000 "},"methodIdentifiers":{"buyCourse(uint256)":"194d73a2","coursePrices(uint256)":"cd411a9d","hasAccess(address,uint256)":"c6530e41","hasBought(address,uint256)":"5f6d4b68","owner()":"8da5cb5b","setCoursePrice(uint256,uint256)":"a637bef7","wsdToken()":"f6c3372f"}}}}}