{"contracts/TokenDistributor.sol":{"TokenDistributor":{"abi":[{"anonymous":false,"inputs":[{"indexed":true,"internalType":"address","name":"user","type":"address"},{"indexed":false,"internalType":"uint256","name":"amount","type":"uint256"}],"name":"TokensDistributed","type":"event"},{"inputs":[],"name":"INITIAL_TOKENS","outputs":[{"internalType":"uint256","name":"","type":"uint256"}],"stateMutability":"view","type":"function"},{"inputs":[],"name":"claimTokens","outputs":[],"stateMutability":"nonpayable","type":"function"},{"inputs":[{"internalType":"address","name":"user","type":"address"}],"name":"getBalance","outputs":[{"internalType":"uint256","name":"","type":"uint256"}],"stateMutability":"view","type":"function"}],"evm":{"bytecode":{"linkReferences":{},"object":"608060405234801561001057600080fd5b506101ca806100206000396000f3fe608060405234801561001057600080fd5b50600436106100415760003560e01c806348c54b9d1461004657806385c8bd6d14610050578063f8b2cb4f1461006b575b600080fd5b61004e610094565b005b6100596103e881565b60405190815260200160405180910390f35b610059610079366004610164565b6001600160a01b031660009081526020819052604090205490565b3360009081526001602052604090205460ff16156101075760405162461bcd60e51b815260206004820152602660248201527f596f75206861766520616c726561647920726563656976656420796f7572207460448201526537b5b2b7399760d11b606482015260840160405180910390fd5b336000818152602081815260408083206103e890819055600180845293829020805460ff1916909417909355519182527f16b0da2ffcb90c6723317bd637d9aad7f04711f42bbe0ac0918ebe10f1f9001c910160405180910390a2565b60006020828403121561017657600080fd5b81356001600160a01b038116811461018d57600080fd5b939250505056fea264697066735822122081579bc64a58e56306020bf29d549f8e1bb795e15d07bb7a396aa7fc13e1993164736f6c63430008140033","opcodes":"PUSH1 0x80 PUSH1 0x40 MSTORE CALLVALUE DUP1 ISZERO PUSH2 0x10 JUMPI PUSH1 0x0 DUP1 REVERT JUMPDEST POP PUSH2 0x1CA DUP1 PUSH2 0x20 PUSH1 0x0 CODECOPY PUSH1 0x0 RETURN INVALID PUSH1 0x80 PUSH1 0x40 MSTORE CALLVALUE DUP1 ISZERO PUSH2 0x10 JUMPI PUSH1 0x0 DUP1 REVERT JUMPDEST POP PUSH1 0x4 CALLDATASIZE LT PUSH2 0x41 JUMPI PUSH1 0x0 CALLDATALOAD PUSH1 0xE0 SHR DUP1 PUSH4 0x48C54B9D EQ PUSH2 0x46 JUMPI DUP1 PUSH4 0x85C8BD6D EQ PUSH2 0x50 JUMPI DUP1 PUSH4 0xF8B2CB4F EQ PUSH2 0x6B JUMPI JUMPDEST PUSH1 0x0 DUP1 REVERT JUMPDEST PUSH2 0x4E PUSH2 0x94 JUMP JUMPDEST STOP JUMPDEST PUSH2 0x59 PUSH2 0x3E8 DUP2 JUMP JUMPDEST PUSH1 0x40 MLOAD SWAP1 DUP2 MSTORE PUSH1 0x20 ADD PUSH1 0x40 MLOAD DUP1 SWAP2 SUB SWAP1 RETURN JUMPDEST PUSH2 0x59 PUSH2 0x79 CALLDATASIZE PUSH1 0x4 PUSH2 0x164 JUMP JUMPDEST PUSH1 0x1 PUSH1 0x1 PUSH1 0xA0 SHL SUB AND PUSH1 0x0 SWAP1 DUP2 MSTORE PUSH1 0x20 DUP2 SWAP1 MSTORE PUSH1 0x40 SWAP1 KECCAK256 SLOAD SWAP1 JUMP JUMPDEST CALLER PUSH1 0x0 SWAP1 DUP2 MSTORE PUSH1 0x1 PUSH1 0x20 MSTORE PUSH1 0x40 SWAP1 KECCAK256 SLOAD PUSH1 0xFF AND ISZERO PUSH2 0x107 JUMPI PUSH1 0x40 MLOAD PUSH3 0x461BCD PUSH1 0xE5 SHL DUP2 MSTORE PUSH1 0x20 PUSH1 0x4 DUP3 ADD MSTORE PUSH1 0x26 PUSH1 0x24 DUP3 ADD MSTORE PUSH32 0x596F75206861766520616C726561647920726563656976656420796F75722074 PUSH1 0x44 DUP3 ADD MSTORE PUSH6 0x37B5B2B73997 PUSH1 0xD1 SHL PUSH1 0x64 DUP3 ADD MSTORE PUSH1 0x84 ADD PUSH1 0x40 MLOAD DUP1 SWAP2 SUB SWAP1 REVERT JUMPDEST CALLER PUSH1 0x0 DUP2 DUP2 MSTORE PUSH1 0x20 DUP2 DUP2 MSTORE PUSH1 0x40 DUP1 DUP4 KECCAK256 PUSH2 0x3E8 SWAP1 DUP2 SWAP1 SSTORE PUSH1 0x1 DUP1 DUP5 MSTORE SWAP4 DUP3 SWAP1 KECCAK256 DUP1 SLOAD PUSH1 0xFF NOT AND SWAP1 SWAP5 OR SWAP1 SWAP4 SSTORE MLOAD SWAP2 DUP3 MSTORE PUSH32 0x16B0DA2FFCB90C6723317BD637D9AAD7F04711F42BBE0AC0918EBE10F1F9001C SWAP2 ADD PUSH1 0x40 MLOAD DUP1 SWAP2 SUB SWAP1 LOG2 JUMP JUMPDEST PUSH1 0x0 PUSH1 0x20 DUP3 DUP5 SUB SLT ISZERO PUSH2 0x176 JUMPI PUSH1 0x0 DUP1 REVERT JUMPDEST DUP2 CALLDATALOAD PUSH1 0x1 PUSH1 0x1 PUSH1 0xA0 SHL SUB DUP2 AND DUP2 EQ PUSH2 0x18D JUMPI PUSH1 0x0 DUP1 REVERT JUMPDEST SWAP4 SWAP3 POP POP POP JUMP INVALID LOG2 PUSH5 0x6970667358 0x22 SLT KECCAK256 DUP2 JUMPI SWAP12 0xC6 0x4A PC 0xE5 PUSH4 0x6020BF2 SWAP14 SLOAD SWAP16 DUP15 SHL 0xB7 SWAP6 0xE1 0x5D SMOD 0xBB PUSH27 0x396AA7FC13E1993164736F6C634300081400330000000000000000 "},"methodIdentifiers":{"INITIAL_TOKENS()":"85c8bd6d","claimTokens()":"48c54b9d","getBalance(address)":"f8b2cb4f"}}}}}